{
  "_format": "hh-sol-artifact-1",
  "contractName": "ProfileImageNfts",
  "sourceName": "contracts/MintProfileImage.sol",
  "abi": [
    {
      "inputs": [],
      "stateMutability": "nonpayable",
      "type": "constructor"
    },
    {
      "anonymous": false,
      "inputs": [
        {
          "indexed": true,
          "internalType": "address",
          "name": "owner",
          "type": "address"
        },
        {
          "indexed": true,
          "internalType": "address",
          "name": "approved",
          "type": "address"
        },
        {
          "indexed": true,
          "internalType": "uint256",
          "name": "tokenId",
          "type": "uint256"
        }
      ],
      "name": "Approval",
      "type": "event"
    },
    {
      "anonymous": false,
      "inputs": [
        {
          "indexed": true,
          "internalType": "address",
          "name": "owner",
          "type": "address"
        },
        {
          "indexed": true,
          "internalType": "address",
          "name": "operator",
          "type": "address"
        },
        {
          "indexed": false,
          "internalType": "bool",
          "name": "approved",
          "type": "bool"
        }
      ],
      "name": "ApprovalForAll",
      "type": "event"
    },
    {
      "anonymous": false,
      "inputs": [
        {
          "indexed": true,
          "internalType": "address",
          "name": "previousOwner",
          "type": "address"
        },
        {
          "indexed": true,
          "internalType": "address",
          "name": "newOwner",
          "type": "address"
        }
      ],
      "name": "OwnershipTransferred",
      "type": "event"
    },
    {
      "anonymous": false,
      "inputs": [
        {
          "indexed": true,
          "internalType": "address",
          "name": "from",
          "type": "address"
        },
        {
          "indexed": true,
          "internalType": "address",
          "name": "to",
          "type": "address"
        },
        {
          "indexed": true,
          "internalType": "uint256",
          "name": "tokenId",
          "type": "uint256"
        }
      ],
      "name": "Transfer",
      "type": "event"
    },
    {
      "inputs": [
        {
          "internalType": "address",
          "name": "to",
          "type": "address"
        },
        {
          "internalType": "uint256",
          "name": "tokenId",
          "type": "uint256"
        }
      ],
      "name": "approve",
      "outputs": [],
      "stateMutability": "nonpayable",
      "type": "function"
    },
    {
      "inputs": [
        {
          "internalType": "address",
          "name": "owner",
          "type": "address"
        }
      ],
      "name": "balanceOf",
      "outputs": [
        {
          "internalType": "uint256",
          "name": "",
          "type": "uint256"
        }
      ],
      "stateMutability": "view",
      "type": "function"
    },
    {
      "inputs": [],
      "name": "getAllToken",
      "outputs": [
        {
          "components": [
            {
              "internalType": "uint256",
              "name": "id",
              "type": "uint256"
            },
            {
              "internalType": "string",
              "name": "uri",
              "type": "string"
            },
            {
              "internalType": "string",
              "name": "space",
              "type": "string"
            }
          ],
          "internalType": "struct ProfileImageNfts.RenderToken[]",
          "name": "",
          "type": "tuple[]"
        }
      ],
      "stateMutability": "view",
      "type": "function"
    },
    {
      "inputs": [
        {
          "internalType": "uint256",
          "name": "tokenId",
          "type": "uint256"
        }
      ],
      "name": "getApproved",
      "outputs": [
        {
          "internalType": "address",
          "name": "",
          "type": "address"
        }
      ],
      "stateMutability": "view",
      "type": "function"
    },
    {
      "inputs": [
        {
          "internalType": "address",
          "name": "owner",
          "type": "address"
        },
        {
          "internalType": "address",
          "name": "operator",
          "type": "address"
        }
      ],
      "name": "isApprovedForAll",
      "outputs": [
        {
          "internalType": "bool",
          "name": "",
          "type": "bool"
        }
      ],
      "stateMutability": "view",
      "type": "function"
    },
    {
      "inputs": [
        {
          "internalType": "address",
          "name": "recipients",
          "type": "address"
        },
        {
          "internalType": "string",
          "name": "_uri",
          "type": "string"
        }
      ],
      "name": "mint",
      "outputs": [
        {
          "internalType": "uint256",
          "name": "",
          "type": "uint256"
        }
      ],
      "stateMutability": "nonpayable",
      "type": "function"
    },
    {
      "inputs": [],
      "name": "name",
      "outputs": [
        {
          "internalType": "string",
          "name": "",
          "type": "string"
        }
      ],
      "stateMutability": "view",
      "type": "function"
    },
    {
      "inputs": [],
      "name": "owner",
      "outputs": [
        {
          "internalType": "address",
          "name": "",
          "type": "address"
        }
      ],
      "stateMutability": "view",
      "type": "function"
    },
    {
      "inputs": [
        {
          "internalType": "uint256",
          "name": "tokenId",
          "type": "uint256"
        }
      ],
      "name": "ownerOf",
      "outputs": [
        {
          "internalType": "address",
          "name": "",
          "type": "address"
        }
      ],
      "stateMutability": "view",
      "type": "function"
    },
    {
      "inputs": [],
      "name": "renounceOwnership",
      "outputs": [],
      "stateMutability": "nonpayable",
      "type": "function"
    },
    {
      "inputs": [
        {
          "internalType": "address",
          "name": "from",
          "type": "address"
        },
        {
          "internalType": "address",
          "name": "to",
          "type": "address"
        },
        {
          "internalType": "uint256",
          "name": "tokenId",
          "type": "uint256"
        }
      ],
      "name": "safeTransferFrom",
      "outputs": [],
      "stateMutability": "nonpayable",
      "type": "function"
    },
    {
      "inputs": [
        {
          "internalType": "address",
          "name": "from",
          "type": "address"
        },
        {
          "internalType": "address",
          "name": "to",
          "type": "address"
        },
        {
          "internalType": "uint256",
          "name": "tokenId",
          "type": "uint256"
        },
        {
          "internalType": "bytes",
          "name": "data",
          "type": "bytes"
        }
      ],
      "name": "safeTransferFrom",
      "outputs": [],
      "stateMutability": "nonpayable",
      "type": "function"
    },
    {
      "inputs": [
        {
          "internalType": "address",
          "name": "operator",
          "type": "address"
        },
        {
          "internalType": "bool",
          "name": "approved",
          "type": "bool"
        }
      ],
      "name": "setApprovalForAll",
      "outputs": [],
      "stateMutability": "nonpayable",
      "type": "function"
    },
    {
      "inputs": [
        {
          "internalType": "bytes4",
          "name": "interfaceId",
          "type": "bytes4"
        }
      ],
      "name": "supportsInterface",
      "outputs": [
        {
          "internalType": "bool",
          "name": "",
          "type": "bool"
        }
      ],
      "stateMutability": "view",
      "type": "function"
    },
    {
      "inputs": [],
      "name": "symbol",
      "outputs": [
        {
          "internalType": "string",
          "name": "",
          "type": "string"
        }
      ],
      "stateMutability": "view",
      "type": "function"
    },
    {
      "inputs": [
        {
          "internalType": "uint256",
          "name": "tokenId",
          "type": "uint256"
        }
      ],
      "name": "tokenURI",
      "outputs": [
        {
          "internalType": "string",
          "name": "",
          "type": "string"
        }
      ],
      "stateMutability": "view",
      "type": "function"
    },
    {
      "inputs": [
        {
          "internalType": "address",
          "name": "from",
          "type": "address"
        },
        {
          "internalType": "address",
          "name": "to",
          "type": "address"
        },
        {
          "internalType": "uint256",
          "name": "tokenId",
          "type": "uint256"
        }
      ],
      "name": "transferFrom",
      "outputs": [],
      "stateMutability": "nonpayable",
      "type": "function"
    },
    {
      "inputs": [
        {
          "internalType": "address",
          "name": "newOwner",
          "type": "address"
        }
      ],
      "name": "transferOwnership",
      "outputs": [],
      "stateMutability": "nonpayable",
      "type": "function"
    }
  ],
  "bytecode": "0x60806040523480156200001157600080fd5b506040518060400160405280601081526020017f50726f66696c65496d6167654e667473000000000000000000000000000000008152506040518060400160405280600381526020017f50494e000000000000000000000000000000000000000000000000000000000081525081600090816200008f919062000412565b508060019081620000a1919062000412565b505050620000c4620000b8620000ca60201b60201c565b620000d260201b60201c565b620004f9565b600033905090565b6000600660009054906101000a900473ffffffffffffffffffffffffffffffffffffffff16905081600660006101000a81548173ffffffffffffffffffffffffffffffffffffffff021916908373ffffffffffffffffffffffffffffffffffffffff1602179055508173ffffffffffffffffffffffffffffffffffffffff168173ffffffffffffffffffffffffffffffffffffffff167f8be0079c531659141344cd1fd0a4f28419497f9722a3daafe3b4186f6b6457e060405160405180910390a35050565b600081519050919050565b7f4e487b7100000000000000000000000000000000000000000000000000000000600052604160045260246000fd5b7f4e487b7100000000000000000000000000000000000000000000000000000000600052602260045260246000fd5b600060028204905060018216806200021a57607f821691505b60208210810362000230576200022f620001d2565b5b50919050565b60008190508160005260206000209050919050565b60006020601f8301049050919050565b600082821b905092915050565b6000600883026200029a7fffffffffffffffffffffffffffffffffffffffffffffffffffffffffffffffff826200025b565b620002a686836200025b565b95508019841693508086168417925050509392505050565b6000819050919050565b6000819050919050565b6000620002f3620002ed620002e784620002be565b620002c8565b620002be565b9050919050565b6000819050919050565b6200030f83620002d2565b620003276200031e82620002fa565b84845462000268565b825550505050565b600090565b6200033e6200032f565b6200034b81848462000304565b505050565b5b8181101562000373576200036760008262000334565b60018101905062000351565b5050565b601f821115620003c2576200038c8162000236565b62000397846200024b565b81016020851015620003a7578190505b620003bf620003b6856200024b565b83018262000350565b50505b505050565b600082821c905092915050565b6000620003e760001984600802620003c7565b1980831691505092915050565b6000620004028383620003d4565b9150826002028217905092915050565b6200041d8262000198565b67ffffffffffffffff811115620004395762000438620001a3565b5b62000445825462000201565b6200045282828562000377565b600060209050601f8311600181146200048a576000841562000475578287015190505b620004818582620003f4565b865550620004f1565b601f1984166200049a8662000236565b60005b82811015620004c4578489015182556001820191506020850194506020810190506200049d565b86831015620004e45784890151620004e0601f891682620003d4565b8355505b6001600288020188555050505b505050505050565b612db080620005096000396000f3fe608060405234801561001057600080fd5b50600436106101165760003560e01c806385e3c1d4116100a2578063b88d4fde11610071578063b88d4fde146102cd578063c87b56dd146102e9578063d0def52114610319578063e985e9c514610349578063f2fde38b1461037957610116565b806385e3c1d4146102575780638da5cb5b1461027557806395d89b4114610293578063a22cb465146102b157610116565b806323b872dd116100e957806323b872dd146101b557806342842e0e146101d15780636352211e146101ed57806370a082311461021d578063715018a61461024d57610116565b806301ffc9a71461011b57806306fdde031461014b578063081812fc14610169578063095ea7b314610199575b600080fd5b610135600480360381019061013091906119f6565b610395565b6040516101429190611a3e565b60405180910390f35b610153610477565b6040516101609190611ae9565b60405180910390f35b610183600480360381019061017e9190611b41565b610509565b6040516101909190611baf565b60405180910390f35b6101b360048036038101906101ae9190611bf6565b61054f565b005b6101cf60048036038101906101ca9190611c36565b610666565b005b6101eb60048036038101906101e69190611c36565b6106c6565b005b61020760048036038101906102029190611b41565b6106e6565b6040516102149190611baf565b60405180910390f35b61023760048036038101906102329190611c89565b61076c565b6040516102449190611cc5565b60405180910390f35b610255610823565b005b61025f610837565b60405161026c9190611e52565b60405180910390f35b61027d610950565b60405161028a9190611baf565b60405180910390f35b61029b61097a565b6040516102a89190611ae9565b60405180910390f35b6102cb60048036038101906102c69190611ea0565b610a0c565b005b6102e760048036038101906102e29190612015565b610a22565b005b61030360048036038101906102fe9190611b41565b610a84565b6040516103109190611ae9565b60405180910390f35b610333600480360381019061032e9190612139565b610b71565b6040516103409190611cc5565b60405180910390f35b610363600480360381019061035e9190612195565b610ba8565b6040516103709190611a3e565b60405180910390f35b610393600480360381019061038e9190611c89565b610c3c565b005b60007f80ac58cd000000000000000000000000000000000000000000000000000000007bffffffffffffffffffffffffffffffffffffffffffffffffffffffff1916827bffffffffffffffffffffffffffffffffffffffffffffffffffffffff1916148061046057507f5b5e139f000000000000000000000000000000000000000000000000000000007bffffffffffffffffffffffffffffffffffffffffffffffffffffffff1916827bffffffffffffffffffffffffffffffffffffffffffffffffffffffff1916145b80610470575061046f82610cbf565b5b9050919050565b60606000805461048690612204565b80601f01602080910402602001604051908101604052809291908181526020018280546104b290612204565b80156104ff5780601f106104d4576101008083540402835291602001916104ff565b820191906000526020600020905b8154815290600101906020018083116104e257829003601f168201915b5050505050905090565b600061051482610d29565b6004600083815260200190815260200160002060009054906101000a900473ffffffffffffffffffffffffffffffffffffffff169050919050565b600061055a826106e6565b90508073ffffffffffffffffffffffffffffffffffffffff168373ffffffffffffffffffffffffffffffffffffffff16036105ca576040517f08c379a00000000000000000000000000000000000000000000000000000000081526004016105c1906122a7565b60405180910390fd5b8073ffffffffffffffffffffffffffffffffffffffff166105e9610d74565b73ffffffffffffffffffffffffffffffffffffffff161480610618575061061781610612610d74565b610ba8565b5b610657576040517f08c379a000000000000000000000000000000000000000000000000000000000815260040161064e90612339565b60405180910390fd5b6106618383610d7c565b505050565b610677610671610d74565b82610e35565b6106b6576040517f08c379a00000000000000000000000000000000000000000000000000000000081526004016106ad906123cb565b60405180910390fd5b6106c1838383610eca565b505050565b6106e183838360405180602001604052806000815250610a22565b505050565b6000806106f2836111c3565b9050600073ffffffffffffffffffffffffffffffffffffffff168173ffffffffffffffffffffffffffffffffffffffff1603610763576040517f08c379a000000000000000000000000000000000000000000000000000000000815260040161075a90612437565b60405180910390fd5b80915050919050565b60008073ffffffffffffffffffffffffffffffffffffffff168273ffffffffffffffffffffffffffffffffffffffff16036107dc576040517f08c379a00000000000000000000000000000000000000000000000000000000081526004016107d3906124c9565b60405180910390fd5b600360008373ffffffffffffffffffffffffffffffffffffffff1673ffffffffffffffffffffffffffffffffffffffff168152602001908152602001600020549050919050565b61082b611200565b610835600061127e565b565b606060006108456007611344565b905060008167ffffffffffffffff81111561086357610862611eea565b5b60405190808252806020026020018201604052801561089c57816020015b610889611969565b8152602001906001900390816108815790505b50905060005b828111610947576108b281611352565b156109345760006108c282610a84565b905060405180606001604052808381526020018281526020016040518060400160405280600181526020017f2000000000000000000000000000000000000000000000000000000000000000815250815250838381518110610927576109266124e9565b5b6020026020010181905250505b808061093f90612547565b9150506108a2565b50809250505090565b6000600660009054906101000a900473ffffffffffffffffffffffffffffffffffffffff16905090565b60606001805461098990612204565b80601f01602080910402602001604051908101604052809291908181526020018280546109b590612204565b8015610a025780601f106109d757610100808354040283529160200191610a02565b820191906000526020600020905b8154815290600101906020018083116109e557829003601f168201915b5050505050905090565b610a1e610a17610d74565b8383611393565b5050565b610a33610a2d610d74565b83610e35565b610a72576040517f08c379a0000000000000000000000000000000000000000000000000000000008152600401610a69906123cb565b60405180910390fd5b610a7e848484846114ff565b50505050565b6060610a8f82611352565b610ace576040517f08c379a0000000000000000000000000000000000000000000000000000000008152600401610ac590612601565b60405180910390fd5b600860008381526020019081526020016000208054610aec90612204565b80601f0160208091040260200160405190810160405280929190818152602001828054610b1890612204565b8015610b655780601f10610b3a57610100808354040283529160200191610b65565b820191906000526020600020905b815481529060010190602001808311610b4857829003601f168201915b50505050509050919050565b600080610b7e6007611344565b9050610b8a848261155b565b610b948184611778565b610b9e600761179d565b8091505092915050565b6000600560008473ffffffffffffffffffffffffffffffffffffffff1673ffffffffffffffffffffffffffffffffffffffff16815260200190815260200160002060008373ffffffffffffffffffffffffffffffffffffffff1673ffffffffffffffffffffffffffffffffffffffff16815260200190815260200160002060009054906101000a900460ff16905092915050565b610c44611200565b600073ffffffffffffffffffffffffffffffffffffffff168173ffffffffffffffffffffffffffffffffffffffff1603610cb3576040517f08c379a0000000000000000000000000000000000000000000000000000000008152600401610caa90612693565b60405180910390fd5b610cbc8161127e565b50565b60007f01ffc9a7000000000000000000000000000000000000000000000000000000007bffffffffffffffffffffffffffffffffffffffffffffffffffffffff1916827bffffffffffffffffffffffffffffffffffffffffffffffffffffffff1916149050919050565b610d3281611352565b610d71576040517f08c379a0000000000000000000000000000000000000000000000000000000008152600401610d6890612437565b60405180910390fd5b50565b600033905090565b816004600083815260200190815260200160002060006101000a81548173ffffffffffffffffffffffffffffffffffffffff021916908373ffffffffffffffffffffffffffffffffffffffff160217905550808273ffffffffffffffffffffffffffffffffffffffff16610def836106e6565b73ffffffffffffffffffffffffffffffffffffffff167f8c5be1e5ebec7d5bd14f71427d1e84f3dd0314c0f7b2291e5b200ac8c7c3b92560405160405180910390a45050565b600080610e41836106e6565b90508073ffffffffffffffffffffffffffffffffffffffff168473ffffffffffffffffffffffffffffffffffffffff161480610e835750610e828185610ba8565b5b80610ec157508373ffffffffffffffffffffffffffffffffffffffff16610ea984610509565b73ffffffffffffffffffffffffffffffffffffffff16145b91505092915050565b8273ffffffffffffffffffffffffffffffffffffffff16610eea826106e6565b73ffffffffffffffffffffffffffffffffffffffff1614610f40576040517f08c379a0000000000000000000000000000000000000000000000000000000008152600401610f3790612725565b60405180910390fd5b600073ffffffffffffffffffffffffffffffffffffffff168273ffffffffffffffffffffffffffffffffffffffff1603610faf576040517f08c379a0000000000000000000000000000000000000000000000000000000008152600401610fa6906127b7565b60405180910390fd5b610fbc83838360016117b3565b8273ffffffffffffffffffffffffffffffffffffffff16610fdc826106e6565b73ffffffffffffffffffffffffffffffffffffffff1614611032576040517f08c379a000000000000000000000000000000000000000000000000000000000815260040161102990612725565b60405180910390fd5b6004600082815260200190815260200160002060006101000a81549073ffffffffffffffffffffffffffffffffffffffff02191690556001600360008573ffffffffffffffffffffffffffffffffffffffff1673ffffffffffffffffffffffffffffffffffffffff168152602001908152602001600020600082825403925050819055506001600360008473ffffffffffffffffffffffffffffffffffffffff1673ffffffffffffffffffffffffffffffffffffffff16815260200190815260200160002060008282540192505081905550816002600083815260200190815260200160002060006101000a81548173ffffffffffffffffffffffffffffffffffffffff021916908373ffffffffffffffffffffffffffffffffffffffff160217905550808273ffffffffffffffffffffffffffffffffffffffff168473ffffffffffffffffffffffffffffffffffffffff167fddf252ad1be2c89b69c2b068fc378daa952ba7f163c4a11628f55a4df523b3ef60405160405180910390a46111be83838360016117b9565b505050565b60006002600083815260200190815260200160002060009054906101000a900473ffffffffffffffffffffffffffffffffffffffff169050919050565b611208610d74565b73ffffffffffffffffffffffffffffffffffffffff16611226610950565b73ffffffffffffffffffffffffffffffffffffffff161461127c576040517f08c379a000000000000000000000000000000000000000000000000000000000815260040161127390612823565b60405180910390fd5b565b6000600660009054906101000a900473ffffffffffffffffffffffffffffffffffffffff16905081600660006101000a81548173ffffffffffffffffffffffffffffffffffffffff021916908373ffffffffffffffffffffffffffffffffffffffff1602179055508173ffffffffffffffffffffffffffffffffffffffff168173ffffffffffffffffffffffffffffffffffffffff167f8be0079c531659141344cd1fd0a4f28419497f9722a3daafe3b4186f6b6457e060405160405180910390a35050565b600081600001549050919050565b60008073ffffffffffffffffffffffffffffffffffffffff16611374836111c3565b73ffffffffffffffffffffffffffffffffffffffff1614159050919050565b8173ffffffffffffffffffffffffffffffffffffffff168373ffffffffffffffffffffffffffffffffffffffff1603611401576040517f08c379a00000000000000000000000000000000000000000000000000000000081526004016113f89061288f565b60405180910390fd5b80600560008573ffffffffffffffffffffffffffffffffffffffff1673ffffffffffffffffffffffffffffffffffffffff16815260200190815260200160002060008473ffffffffffffffffffffffffffffffffffffffff1673ffffffffffffffffffffffffffffffffffffffff16815260200190815260200160002060006101000a81548160ff0219169083151502179055508173ffffffffffffffffffffffffffffffffffffffff168373ffffffffffffffffffffffffffffffffffffffff167f17307eab39ab6107e8899845ad3d59bd9653f200f220920489ca2b5937696c31836040516114f29190611a3e565b60405180910390a3505050565b61150a848484610eca565b611516848484846117bf565b611555576040517f08c379a000000000000000000000000000000000000000000000000000000000815260040161154c90612921565b60405180910390fd5b50505050565b600073ffffffffffffffffffffffffffffffffffffffff168273ffffffffffffffffffffffffffffffffffffffff16036115ca576040517f08c379a00000000000000000000000000000000000000000000000000000000081526004016115c19061298d565b60405180910390fd5b6115d381611352565b15611613576040517f08c379a000000000000000000000000000000000000000000000000000000000815260040161160a906129f9565b60405180910390fd5b6116216000838360016117b3565b61162a81611352565b1561166a576040517f08c379a0000000000000000000000000000000000000000000000000000000008152600401611661906129f9565b60405180910390fd5b6001600360008473ffffffffffffffffffffffffffffffffffffffff1673ffffffffffffffffffffffffffffffffffffffff16815260200190815260200160002060008282540192505081905550816002600083815260200190815260200160002060006101000a81548173ffffffffffffffffffffffffffffffffffffffff021916908373ffffffffffffffffffffffffffffffffffffffff160217905550808273ffffffffffffffffffffffffffffffffffffffff16600073ffffffffffffffffffffffffffffffffffffffff167fddf252ad1be2c89b69c2b068fc378daa952ba7f163c4a11628f55a4df523b3ef60405160405180910390a46117746000838360016117b9565b5050565b806008600084815260200190815260200160002090816117989190612bc5565b505050565b6001816000016000828254019250508190555050565b50505050565b50505050565b60006117e08473ffffffffffffffffffffffffffffffffffffffff16611946565b15611939578373ffffffffffffffffffffffffffffffffffffffff1663150b7a02611809610d74565b8786866040518563ffffffff1660e01b815260040161182b9493929190612cec565b6020604051808303816000875af192505050801561186757506040513d601f19601f820116820180604052508101906118649190612d4d565b60015b6118e9573d8060008114611897576040519150601f19603f3d011682016040523d82523d6000602084013e61189c565b606091505b5060008151036118e1576040517f08c379a00000000000000000000000000000000000000000000000000000000081526004016118d890612921565b60405180910390fd5b805181602001fd5b63150b7a0260e01b7bffffffffffffffffffffffffffffffffffffffffffffffffffffffff1916817bffffffffffffffffffffffffffffffffffffffffffffffffffffffff19161491505061193e565b600190505b949350505050565b6000808273ffffffffffffffffffffffffffffffffffffffff163b119050919050565b60405180606001604052806000815260200160608152602001606081525090565b6000604051905090565b600080fd5b600080fd5b60007fffffffff0000000000000000000000000000000000000000000000000000000082169050919050565b6119d38161199e565b81146119de57600080fd5b50565b6000813590506119f0816119ca565b92915050565b600060208284031215611a0c57611a0b611994565b5b6000611a1a848285016119e1565b91505092915050565b60008115159050919050565b611a3881611a23565b82525050565b6000602082019050611a536000830184611a2f565b92915050565b600081519050919050565b600082825260208201905092915050565b60005b83811015611a93578082015181840152602081019050611a78565b60008484015250505050565b6000601f19601f8301169050919050565b6000611abb82611a59565b611ac58185611a64565b9350611ad5818560208601611a75565b611ade81611a9f565b840191505092915050565b60006020820190508181036000830152611b038184611ab0565b905092915050565b6000819050919050565b611b1e81611b0b565b8114611b2957600080fd5b50565b600081359050611b3b81611b15565b92915050565b600060208284031215611b5757611b56611994565b5b6000611b6584828501611b2c565b91505092915050565b600073ffffffffffffffffffffffffffffffffffffffff82169050919050565b6000611b9982611b6e565b9050919050565b611ba981611b8e565b82525050565b6000602082019050611bc46000830184611ba0565b92915050565b611bd381611b8e565b8114611bde57600080fd5b50565b600081359050611bf081611bca565b92915050565b60008060408385031215611c0d57611c0c611994565b5b6000611c1b85828601611be1565b9250506020611c2c85828601611b2c565b9150509250929050565b600080600060608486031215611c4f57611c4e611994565b5b6000611c5d86828701611be1565b9350506020611c6e86828701611be1565b9250506040611c7f86828701611b2c565b9150509250925092565b600060208284031215611c9f57611c9e611994565b5b6000611cad84828501611be1565b91505092915050565b611cbf81611b0b565b82525050565b6000602082019050611cda6000830184611cb6565b92915050565b600081519050919050565b600082825260208201905092915050565b6000819050602082019050919050565b611d1581611b0b565b82525050565b600082825260208201905092915050565b6000611d3782611a59565b611d418185611d1b565b9350611d51818560208601611a75565b611d5a81611a9f565b840191505092915050565b6000606083016000830151611d7d6000860182611d0c565b5060208301518482036020860152611d958282611d2c565b91505060408301518482036040860152611daf8282611d2c565b9150508091505092915050565b6000611dc88383611d65565b905092915050565b6000602082019050919050565b6000611de882611ce0565b611df28185611ceb565b935083602082028501611e0485611cfc565b8060005b85811015611e405784840389528151611e218582611dbc565b9450611e2c83611dd0565b925060208a01995050600181019050611e08565b50829750879550505050505092915050565b60006020820190508181036000830152611e6c8184611ddd565b905092915050565b611e7d81611a23565b8114611e8857600080fd5b50565b600081359050611e9a81611e74565b92915050565b60008060408385031215611eb757611eb6611994565b5b6000611ec585828601611be1565b9250506020611ed685828601611e8b565b9150509250929050565b600080fd5b600080fd5b7f4e487b7100000000000000000000000000000000000000000000000000000000600052604160045260246000fd5b611f2282611a9f565b810181811067ffffffffffffffff82111715611f4157611f40611eea565b5b80604052505050565b6000611f5461198a565b9050611f608282611f19565b919050565b600067ffffffffffffffff821115611f8057611f7f611eea565b5b611f8982611a9f565b9050602081019050919050565b82818337600083830152505050565b6000611fb8611fb384611f65565b611f4a565b905082815260208101848484011115611fd457611fd3611ee5565b5b611fdf848285611f96565b509392505050565b600082601f830112611ffc57611ffb611ee0565b5b813561200c848260208601611fa5565b91505092915050565b6000806000806080858703121561202f5761202e611994565b5b600061203d87828801611be1565b945050602061204e87828801611be1565b935050604061205f87828801611b2c565b925050606085013567ffffffffffffffff8111156120805761207f611999565b5b61208c87828801611fe7565b91505092959194509250565b600067ffffffffffffffff8211156120b3576120b2611eea565b5b6120bc82611a9f565b9050602081019050919050565b60006120dc6120d784612098565b611f4a565b9050828152602081018484840111156120f8576120f7611ee5565b5b612103848285611f96565b509392505050565b600082601f8301126121205761211f611ee0565b5b81356121308482602086016120c9565b91505092915050565b600080604083850312156121505761214f611994565b5b600061215e85828601611be1565b925050602083013567ffffffffffffffff81111561217f5761217e611999565b5b61218b8582860161210b565b9150509250929050565b600080604083850312156121ac576121ab611994565b5b60006121ba85828601611be1565b92505060206121cb85828601611be1565b9150509250929050565b7f4e487b7100000000000000000000000000000000000000000000000000000000600052602260045260246000fd5b6000600282049050600182168061221c57607f821691505b60208210810361222f5761222e6121d5565b5b50919050565b7f4552433732313a20617070726f76616c20746f2063757272656e74206f776e6560008201527f7200000000000000000000000000000000000000000000000000000000000000602082015250565b6000612291602183611a64565b915061229c82612235565b604082019050919050565b600060208201905081810360008301526122c081612284565b9050919050565b7f4552433732313a20617070726f76652063616c6c6572206973206e6f7420746f60008201527f6b656e206f776e6572206f7220617070726f76656420666f7220616c6c000000602082015250565b6000612323603d83611a64565b915061232e826122c7565b604082019050919050565b6000602082019050818103600083015261235281612316565b9050919050565b7f4552433732313a2063616c6c6572206973206e6f7420746f6b656e206f776e6560008201527f72206f7220617070726f76656400000000000000000000000000000000000000602082015250565b60006123b5602d83611a64565b91506123c082612359565b604082019050919050565b600060208201905081810360008301526123e4816123a8565b9050919050565b7f4552433732313a20696e76616c696420746f6b656e2049440000000000000000600082015250565b6000612421601883611a64565b915061242c826123eb565b602082019050919050565b6000602082019050818103600083015261245081612414565b9050919050565b7f4552433732313a2061646472657373207a65726f206973206e6f74206120766160008201527f6c6964206f776e65720000000000000000000000000000000000000000000000602082015250565b60006124b3602983611a64565b91506124be82612457565b604082019050919050565b600060208201905081810360008301526124e2816124a6565b9050919050565b7f4e487b7100000000000000000000000000000000000000000000000000000000600052603260045260246000fd5b7f4e487b7100000000000000000000000000000000000000000000000000000000600052601160045260246000fd5b600061255282611b0b565b91507fffffffffffffffffffffffffffffffffffffffffffffffffffffffffffffffff820361258457612583612518565b5b600182019050919050565b7f55524920646f6573206e6f74206578697374206f6e2074686520676976656e2060008201527f4944210000000000000000000000000000000000000000000000000000000000602082015250565b60006125eb602383611a64565b91506125f68261258f565b604082019050919050565b6000602082019050818103600083015261261a816125de565b9050919050565b7f4f776e61626c653a206e6577206f776e657220697320746865207a65726f206160008201527f6464726573730000000000000000000000000000000000000000000000000000602082015250565b600061267d602683611a64565b915061268882612621565b604082019050919050565b600060208201905081810360008301526126ac81612670565b9050919050565b7f4552433732313a207472616e736665722066726f6d20696e636f72726563742060008201527f6f776e6572000000000000000000000000000000000000000000000000000000602082015250565b600061270f602583611a64565b915061271a826126b3565b604082019050919050565b6000602082019050818103600083015261273e81612702565b9050919050565b7f4552433732313a207472616e7366657220746f20746865207a65726f2061646460008201527f7265737300000000000000000000000000000000000000000000000000000000602082015250565b60006127a1602483611a64565b91506127ac82612745565b604082019050919050565b600060208201905081810360008301526127d081612794565b9050919050565b7f4f776e61626c653a2063616c6c6572206973206e6f7420746865206f776e6572600082015250565b600061280d602083611a64565b9150612818826127d7565b602082019050919050565b6000602082019050818103600083015261283c81612800565b9050919050565b7f4552433732313a20617070726f766520746f2063616c6c657200000000000000600082015250565b6000612879601983611a64565b915061288482612843565b602082019050919050565b600060208201905081810360008301526128a88161286c565b9050919050565b7f4552433732313a207472616e7366657220746f206e6f6e20455243373231526560008201527f63656976657220696d706c656d656e7465720000000000000000000000000000602082015250565b600061290b603283611a64565b9150612916826128af565b604082019050919050565b6000602082019050818103600083015261293a816128fe565b9050919050565b7f4552433732313a206d696e7420746f20746865207a65726f2061646472657373600082015250565b6000612977602083611a64565b915061298282612941565b602082019050919050565b600060208201905081810360008301526129a68161296a565b9050919050565b7f4552433732313a20746f6b656e20616c7265616479206d696e74656400000000600082015250565b60006129e3601c83611a64565b91506129ee826129ad565b602082019050919050565b60006020820190508181036000830152612a12816129d6565b9050919050565b60008190508160005260206000209050919050565b60006020601f8301049050919050565b600082821b905092915050565b600060088302612a7b7fffffffffffffffffffffffffffffffffffffffffffffffffffffffffffffffff82612a3e565b612a858683612a3e565b95508019841693508086168417925050509392505050565b6000819050919050565b6000612ac2612abd612ab884611b0b565b612a9d565b611b0b565b9050919050565b6000819050919050565b612adc83612aa7565b612af0612ae882612ac9565b848454612a4b565b825550505050565b600090565b612b05612af8565b612b10818484612ad3565b505050565b5b81811015612b3457612b29600082612afd565b600181019050612b16565b5050565b601f821115612b7957612b4a81612a19565b612b5384612a2e565b81016020851015612b62578190505b612b76612b6e85612a2e565b830182612b15565b50505b505050565b600082821c905092915050565b6000612b9c60001984600802612b7e565b1980831691505092915050565b6000612bb58383612b8b565b9150826002028217905092915050565b612bce82611a59565b67ffffffffffffffff811115612be757612be6611eea565b5b612bf18254612204565b612bfc828285612b38565b600060209050601f831160018114612c2f5760008415612c1d578287015190505b612c278582612ba9565b865550612c8f565b601f198416612c3d86612a19565b60005b82811015612c6557848901518255600182019150602085019450602081019050612c40565b86831015612c825784890151612c7e601f891682612b8b565b8355505b6001600288020188555050505b505050505050565b600081519050919050565b600082825260208201905092915050565b6000612cbe82612c97565b612cc88185612ca2565b9350612cd8818560208601611a75565b612ce181611a9f565b840191505092915050565b6000608082019050612d016000830187611ba0565b612d0e6020830186611ba0565b612d1b6040830185611cb6565b8181036060830152612d2d8184612cb3565b905095945050505050565b600081519050612d47816119ca565b92915050565b600060208284031215612d6357612d62611994565b5b6000612d7184828501612d38565b9150509291505056fea2646970667358221220eab5fec0f275349706fa2d708d7c7f5d3bd60d7d58182bb68becc54cf272205c64736f6c63430008120033",
  "linkReferences": {},
  "deployedLinkReferences": {}
}